:100000000AC011C010C00FC00EC00DC00CC00BC084
:100010000AC009C008C011271FBFCFE5D0E0DEBF6E
:10002000CDBF02D02FC0ECCF48ED4CBF17BF4CBFA7
:1000300048E046BF11B94CE042B943E043B940E063
:1000400078E087EF6CE094E0EBEF50B15370440F31
:10005000440F450F4F70473019F491B9E2B904C00D
:100060004D3061F471B982B9AFEEB0E0A150B0404B
:10007000E9F700C0000011B962B9E7CFB0E1BA9565
:08008000F1F7E3CFF894FFCF84
:00000001FF
