:100000000AC011C010C00FC00EC00DC00CC00BC084
:100010000AC009C008C011271FBFCFE5D0E0DEBF6E
:10002000CDBF02D063C0ECCFCF93DF9300D0CDB76C
:10003000DEB748ED4CBF17BF4CBF48E046BF11B913
:100040004CE042B943E043B960E0F8E087EF7CE080
:1000500094E0EBEF660F660F40B14370640F6130C0
:1000600001F591B9E2B9CE5FDF4F18831A93C15001
:10007000D040CF5FDF4F49915881C250D0404431CA
:10008000510788F5CF5FDF4F49915881C250D0406A
:100090004F5F5F4FCE5FDF4F58834A93C150D040D0
:1000A000E8CF6230B9F6F1B982B9CE5FDF4F18837D
:1000B0001A93C150D040CF5FDF4F49915881C25051
:1000C000D0404431510778F4CF5FDF4F49915881D8
:1000D000C250D0404F5F5F4FCE5FDF4F58834A938F
:1000E000C150D040E8CF11B972B9B4CFF894FFCF66
:00000001FF
